{
  "contractName": "CovidApp",
  "abi": [
    {
      "inputs": [],
      "payable": false,
      "stateMutability": "nonpayable",
      "type": "constructor"
    },
    {
      "constant": false,
      "inputs": [
        {
          "internalType": "string",
          "name": "_name",
          "type": "string"
        },
        {
          "internalType": "uint8",
          "name": "_age",
          "type": "uint8"
        },
        {
          "internalType": "uint256",
          "name": "_numCin",
          "type": "uint256"
        },
        {
          "internalType": "string",
          "name": "_gender",
          "type": "string"
        },
        {
          "internalType": "string",
          "name": "_contact",
          "type": "string"
        },
        {
          "internalType": "string",
          "name": "_city",
          "type": "string"
        }
      ],
      "name": "signupPatient",
      "outputs": [],
      "payable": false,
      "stateMutability": "nonpayable",
      "type": "function"
    },
    {
      "constant": false,
      "inputs": [
        {
          "internalType": "string",
          "name": "_name",
          "type": "string"
        }
      ],
      "name": "signupDoctor",
      "outputs": [],
      "payable": false,
      "stateMutability": "nonpayable",
      "type": "function"
    },
    {
      "constant": false,
      "inputs": [
        {
          "internalType": "address",
          "name": "doctor_id",
          "type": "address"
        }
      ],
      "name": "grantAccessToDoctor",
      "outputs": [],
      "payable": false,
      "stateMutability": "nonpayable",
      "type": "function"
    },
    {
      "constant": true,
      "inputs": [],
      "name": "getPatientInfo",
      "outputs": [
        {
          "internalType": "string",
          "name": "",
          "type": "string"
        },
        {
          "internalType": "uint8",
          "name": "",
          "type": "uint8"
        },
        {
          "internalType": "address[]",
          "name": "",
          "type": "address[]"
        },
        {
          "internalType": "uint256",
          "name": "",
          "type": "uint256"
        }
      ],
      "payable": false,
      "stateMutability": "view",
      "type": "function"
    },
    {
      "constant": true,
      "inputs": [],
      "name": "getDoctorInfo",
      "outputs": [
        {
          "internalType": "string",
          "name": "",
          "type": "string"
        },
        {
          "internalType": "address[]",
          "name": "",
          "type": "address[]"
        }
      ],
      "payable": false,
      "stateMutability": "view",
      "type": "function"
    },
    {
      "constant": true,
      "inputs": [
        {
          "internalType": "address",
          "name": "_user",
          "type": "address"
        }
      ],
      "name": "checkProfile",
      "outputs": [
        {
          "internalType": "string",
          "name": "",
          "type": "string"
        },
        {
          "internalType": "string",
          "name": "",
          "type": "string"
        }
      ],
      "payable": false,
      "stateMutability": "view",
      "type": "function"
    },
    {
      "constant": true,
      "inputs": [
        {
          "internalType": "address",
          "name": "pat",
          "type": "address"
        }
      ],
      "name": "getPatientInfoForDoctor",
      "outputs": [
        {
          "internalType": "string",
          "name": "",
          "type": "string"
        },
        {
          "internalType": "uint8",
          "name": "",
          "type": "uint8"
        },
        {
          "internalType": "uint256",
          "name": "",
          "type": "uint256"
        },
        {
          "internalType": "address",
          "name": "",
          "type": "address"
        }
      ],
      "payable": false,
      "stateMutability": "view",
      "type": "function"
    },
    {
      "constant": true,
      "inputs": [
        {
          "internalType": "address",
          "name": "pat",
          "type": "address"
        },
        {
          "internalType": "string",
          "name": "_doseType",
          "type": "string"
        },
        {
          "internalType": "string",
          "name": "_doseDate",
          "type": "string"
        }
      ],
      "name": "addDose",
      "outputs": [
        {
          "internalType": "uint256",
          "name": "",
          "type": "uint256"
        }
      ],
      "payable": false,
      "stateMutability": "view",
      "type": "function"
    },
    {
      "constant": true,
      "inputs": [
        {
          "internalType": "address",
          "name": "pat",
          "type": "address"
        },
        {
          "internalType": "string",
          "name": "_infectionDate",
          "type": "string"
        }
      ],
      "name": "addInfection",
      "outputs": [
        {
          "internalType": "uint256",
          "name": "",
          "type": "uint256"
        }
      ],
      "payable": false,
      "stateMutability": "view",
      "type": "function"
    },
    {
      "constant": true,
      "inputs": [
        {
          "internalType": "address",
          "name": "pat",
          "type": "address"
        }
      ],
      "name": "getPatientPasseportForAll",
      "outputs": [
        {
          "internalType": "string",
          "name": "",
          "type": "string"
        },
        {
          "internalType": "uint256",
          "name": "",
          "type": "uint256"
        }
      ],
      "payable": false,
      "stateMutability": "view",
      "type": "function"
    }
  ],
  "bytecode": "0x608060405234801561001057600080fd5b50600080546001600160a01b03191633179055615cfd80620000336000396000f3fe608060405234801561001057600080fd5b506004361061009e5760003560e01c80636459d52f116100665780636459d52f1461058b5780639a3594271461062f578063a7a39603146106f5578063b380f5c61461082e578063fe59cc1a146108ef5761009e565b806301d99258146100a35780631c8e251c146101a75780632344e9b6146101cf578063326df664146102745780634ec5f17b14610349575b600080fd5b6100c9600480360360208110156100b957600080fd5b50356001600160a01b03166109ba565b604051808060200180602001838103835285818151815260200191508051906020019080838360005b8381101561010a5781810151838201526020016100f2565b50505050905090810190601f1680156101375780820380516001836020036101000a031916815260200191505b50838103825284518152845160209182019186019080838360005b8381101561016a578181015183820152602001610152565b50505050905090810190601f1680156101975780820380516001836020036101000a031916815260200191505b5094505050505060405180910390f35b6101cd600480360360208110156101bd57600080fd5b50356001600160a01b0316611085565b005b6101f5600480360360208110156101e557600080fd5b50356001600160a01b0316611793565b6040518080602001838152602001828103825284818151815260200191508051906020019080838360005b83811015610238578181015183820152602001610220565b50505050905090810190601f1680156102655780820380516001836020036101000a031916815260200191505b50935050505060405180910390f35b61027c6121c7565b60405180806020018560ff1660ff16815260200180602001848152602001838103835287818151815260200191508051906020019080838360005b838110156102cf5781810151838201526020016102b7565b50505050905090810190601f1680156102fc5780820380516001836020036101000a031916815260200191505b508381038252855181528551602091820191808801910280838360005b83811015610331578181015183820152602001610319565b50505050905001965050505050505060405180910390f35b6101cd600480360360c081101561035f57600080fd5b810190602081018135600160201b81111561037957600080fd5b82018360208201111561038b57600080fd5b803590602001918460018302840111600160201b831117156103ac57600080fd5b91908080601f016020809104026020016040519081016040528093929190818152602001838380828437600092019190915250929560ff85351695602086013595919450925060608101915060400135600160201b81111561040d57600080fd5b82018360208201111561041f57600080fd5b803590602001918460018302840111600160201b8311171561044057600080fd5b91908080601f0160208091040260200160405190810160405280939291908181526020018383808284376000920191909152509295949360208101935035915050600160201b81111561049257600080fd5b8201836020820111156104a457600080fd5b803590602001918460018302840111600160201b831117156104c557600080fd5b91908080601f0160208091040260200160405190810160405280939291908181526020018383808284376000920191909152509295949360208101935035915050600160201b81111561051757600080fd5b82018360208201111561052957600080fd5b803590602001918460018302840111600160201b8311171561054a57600080fd5b91908080601f016020809104026020016040519081016040528093929190818152602001838380828437600092019190915250929550612bbe945050505050565b6101cd600480360360208110156105a157600080fd5b810190602081018135600160201b8111156105bb57600080fd5b8201836020820111156105cd57600080fd5b803590602001918460018302840111600160201b831117156105ee57600080fd5b91908080601f016020809104026020016040519081016040528093929190818152602001838380828437600092019190915250929550613366945050505050565b6106e36004803603604081101561064557600080fd5b6001600160a01b038235169190810190604081016020820135600160201b81111561066f57600080fd5b82018360208201111561068157600080fd5b803590602001918460018302840111600160201b831117156106a257600080fd5b91908080601f0160208091040260200160405190810160405280939291908181526020018383808284376000920191909152509295506135d2945050505050565b60408051918252519081900360200190f35b6106e36004803603606081101561070b57600080fd5b6001600160a01b038235169190810190604081016020820135600160201b81111561073557600080fd5b82018360208201111561074757600080fd5b803590602001918460018302840111600160201b8311171561076857600080fd5b91908080601f0160208091040260200160405190810160405280939291908181526020018383808284376000920191909152509295949360208101935035915050600160201b8111156107ba57600080fd5b8201836020820111156107cc57600080fd5b803590602001918460018302840111600160201b831117156107ed57600080fd5b91908080601f01602080910402602001604051908101604052809392919081815260200183838082843760009201919091525092955061414b945050505050565b610836614ccc565b604051808060200180602001838103835285818151815260200191508051906020019080838360005b8381101561087757818101518382015260200161085f565b50505050905090810190601f1680156108a45780820380516001836020036101000a031916815260200191505b508381038252845181528451602091820191808701910280838360005b838110156108d95781810151838201526020016108c1565b5050505090500194505050505060405180910390f35b6109156004803603602081101561090557600080fd5b50356001600160a01b0316614f5c565b60405180806020018560ff1660ff168152602001848152602001836001600160a01b03166001600160a01b03168152602001828103825286818151815260200191508051906020019080838360005b8381101561097c578181015183820152602001610964565b50505050905090810190601f1680156109a95780820380516001836020036101000a031916815260200191505b509550505050505060405180910390f35b60005460609081906001600160a01b031633146109d657600080fd5b6109de615adf565b6001600160a01b0384166000908152600360209081526040918290208251815460026001821615610100026000190190911604601f810184900490930281016101c09081019094526101a08101838152909391928492849190840182828015610a885780601f10610a5d57610100808354040283529160200191610a88565b820191906000526020600020905b815481529060010190602001808311610a6b57829003601f168201915b505050918352505060018281015460ff8116602080850191909152610100918290046001600160a01b031660408086019190915260028087015460608701526003870180548351968116159095026000190190941604601f810183900483028501830190915280845260809094019390830182828015610b495780601f10610b1e57610100808354040283529160200191610b49565b820191906000526020600020905b815481529060010190602001808311610b2c57829003601f168201915b505050918352505060048201805460408051602060026001851615610100026000190190941693909304601f8101849004840282018401909252818152938201939291830182828015610bdd5780601f10610bb257610100808354040283529160200191610bdd565b820191906000526020600020905b815481529060010190602001808311610bc057829003601f168201915b505050918352505060058201805460408051602060026001851615610100026000190190941693909304601f8101849004840282018401909252818152938201939291830182828015610c715780601f10610c4657610100808354040283529160200191610c71565b820191906000526020600020905b815481529060010190602001808311610c5457829003601f168201915b5050505050815260200160068201805480602002602001604051908101604052809291908181526020018280548015610cd357602002820191906000526020600020905b81546001600160a01b03168152600190910190602001808311610cb5575b5050509183525050600782015460208083019190915260088301805460408051601f60026000196101006001871615020190941693909304928301859004850281018501825282815294019392830182828015610d715780601f10610d4657610100808354040283529160200191610d71565b820191906000526020600020905b815481529060010190602001808311610d5457829003601f168201915b505050918352505060098201805460408051602060026001851615610100026000190190941693909304601f8101849004840282018401909252818152938201939291830182828015610e055780601f10610dda57610100808354040283529160200191610e05565b820191906000526020600020905b815481529060010190602001808311610de857829003601f168201915b5050509183525050600a820154602080830191909152600b8301805460408051601f60026000196101006001871615020190941693909304928301859004850281018501825282815294019392830182828015610ea35780601f10610e7857610100808354040283529160200191610ea3565b820191906000526020600020905b815481529060010190602001808311610e8657829003601f168201915b5050505050815250509050610eb6615b53565b6001600160a01b0385166000908152600160208181526040928390208351815460029481161561010002600019011693909304601f810183900490920283016080908101909452606083018281529293909284929091849190840182828015610f605780601f10610f3557610100808354040283529160200191610f60565b820191906000526020600020905b815481529060010190602001808311610f4357829003601f168201915b505050918352505060018201546001600160a01b03166020808301919091526002830180546040805182850281018501825282815294019392830182828015610fd257602002820191906000526020600020905b81546001600160a01b03168152600190910190602001808311610fb4575b5050509190925250505060408301519091506001600160a01b03161561101c5750516040805180820190915260078152661c185d1a595b9d60ca1b60208201529092509050611080565b60208101516001600160a01b03161561105957516040805180820190915260068152653237b1ba37b960d11b602082015290935091506110809050565b60405180602001604052806000815250604051806020016040528060008152509350935050505b915091565b3361108e615adf565b6001600160a01b0382166000908152600360209081526040918290208251815460026001821615610100026000190190911604601f810184900490930281016101c09081019094526101a081018381529093919284928491908401828280156111385780601f1061110d57610100808354040283529160200191611138565b820191906000526020600020905b81548152906001019060200180831161111b57829003601f168201915b505050918352505060018281015460ff8116602080850191909152610100918290046001600160a01b031660408086019190915260028087015460608701526003870180548351968116159095026000190190941604601f8101839004830285018301909152808452608090940193908301828280156111f95780601f106111ce576101008083540402835291602001916111f9565b820191906000526020600020905b8154815290600101906020018083116111dc57829003601f168201915b505050918352505060048201805460408051602060026001851615610100026000190190941693909304601f810184900484028201840190925281815293820193929183018282801561128d5780601f106112625761010080835404028352916020019161128d565b820191906000526020600020905b81548152906001019060200180831161127057829003601f168201915b505050918352505060058201805460408051602060026001851615610100026000190190941693909304601f81018490048402820184019092528181529382019392918301828280156113215780601f106112f657610100808354040283529160200191611321565b820191906000526020600020905b81548152906001019060200180831161130457829003601f168201915b505050505081526020016006820180548060200260200160405190810160405280929190818152602001828054801561138357602002820191906000526020600020905b81546001600160a01b03168152600190910190602001808311611365575b5050509183525050600782015460208083019190915260088301805460408051601f600260001961010060018716150201909416939093049283018590048502810185018252828152940193928301828280156114215780601f106113f657610100808354040283529160200191611421565b820191906000526020600020905b81548152906001019060200180831161140457829003601f168201915b505050918352505060098201805460408051602060026001851615610100026000190190941693909304601f81018490048402820184019092528181529382019392918301828280156114b55780601f1061148a576101008083540402835291602001916114b5565b820191906000526020600020905b81548152906001019060200180831161149857829003601f168201915b5050509183525050600a820154602080830191909152600b8301805460408051601f600260001961010060018716150201909416939093049283018590048502810185018252828152940193928301828280156115535780601f1061152857610100808354040283529160200191611553565b820191906000526020600020905b81548152906001019060200180831161153657829003601f168201915b505050505081525050905060006001600160a01b031681604001516001600160a01b03161161158157600080fd5b8261158a615b53565b6001600160a01b0382166000908152600160208181526040928390208351815460029481161561010002600019011693909304601f8101839004909202830160809081019094526060830182815292939092849290918491908401828280156116345780601f1061160957610100808354040283529160200191611634565b820191906000526020600020905b81548152906001019060200180831161161757829003601f168201915b505050918352505060018201546001600160a01b031660208083019190915260028301805460408051828502810185018252828152940193928301828280156116a657602002820191906000526020600020905b81546001600160a01b03168152600190910190602001808311611688575b505050505081525050905060006001600160a01b031681602001516001600160a01b0316116116d457600080fd5b3360008181526003602090815260408083206001600160a01b038a1680855260018085528386209686526004855283862091865293529220549192911061171a57600080fd5b6006909101805460018181018084556000938452602080852090930180546001600160a01b03909b166001600160a01b03199b8c16811790915560058290553380865260048552604080872092875291855290852091909155600290940180549182018155835291200180549096161790945550505050565b60606000826117a0615adf565b6001600160a01b0382166000908152600360209081526040918290208251815460026001821615610100026000190190911604601f810184900490930281016101c09081019094526101a0810183815290939192849284919084018282801561184a5780601f1061181f5761010080835404028352916020019161184a565b820191906000526020600020905b81548152906001019060200180831161182d57829003601f168201915b505050918352505060018281015460ff8116602080850191909152610100918290046001600160a01b031660408086019190915260028087015460608701526003870180548351968116159095026000190190941604601f81018390048302850183019091528084526080909401939083018282801561190b5780601f106118e05761010080835404028352916020019161190b565b820191906000526020600020905b8154815290600101906020018083116118ee57829003601f168201915b505050918352505060048201805460408051602060026001851615610100026000190190941693909304601f810184900484028201840190925281815293820193929183018282801561199f5780601f106119745761010080835404028352916020019161199f565b820191906000526020600020905b81548152906001019060200180831161198257829003601f168201915b505050918352505060058201805460408051602060026001851615610100026000190190941693909304601f8101849004840282018401909252818152938201939291830182828015611a335780601f10611a0857610100808354040283529160200191611a33565b820191906000526020600020905b815481529060010190602001808311611a1657829003601f168201915b5050505050815260200160068201805480602002602001604051908101604052809291908181526020018280548015611a9557602002820191906000526020600020905b81546001600160a01b03168152600190910190602001808311611a77575b5050509183525050600782015460208083019190915260088301805460408051601f60026000196101006001871615020190941693909304928301859004850281018501825282815294019392830182828015611b335780601f10611b0857610100808354040283529160200191611b33565b820191906000526020600020905b815481529060010190602001808311611b1657829003601f168201915b505050918352505060098201805460408051602060026001851615610100026000190190941693909304601f8101849004840282018401909252818152938201939291830182828015611bc75780601f10611b9c57610100808354040283529160200191611bc7565b820191906000526020600020905b815481529060010190602001808311611baa57829003601f168201915b5050509183525050600a820154602080830191909152600b8301805460408051601f60026000196101006001871615020190941693909304928301859004850281018501825282815294019392830182828015611c655780601f10611c3a57610100808354040283529160200191611c65565b820191906000526020600020905b815481529060010190602001808311611c4857829003601f168201915b505050505081525050905060006001600160a01b031681604001516001600160a01b031611611c9357600080fd5b611c9b615adf565b6001600160a01b0386166000908152600360209081526040918290208251815460026001821615610100026000190190911604601f810184900490930281016101c09081019094526101a08101838152909391928492849190840182828015611d455780601f10611d1a57610100808354040283529160200191611d45565b820191906000526020600020905b815481529060010190602001808311611d2857829003601f168201915b505050918352505060018281015460ff8116602080850191909152610100918290046001600160a01b031660408086019190915260028087015460608701526003870180548351968116159095026000190190941604601f810183900483028501830190915280845260809094019390830182828015611e065780601f10611ddb57610100808354040283529160200191611e06565b820191906000526020600020905b815481529060010190602001808311611de957829003601f168201915b505050918352505060048201805460408051602060026001851615610100026000190190941693909304601f8101849004840282018401909252818152938201939291830182828015611e9a5780601f10611e6f57610100808354040283529160200191611e9a565b820191906000526020600020905b815481529060010190602001808311611e7d57829003601f168201915b505050918352505060058201805460408051602060026001851615610100026000190190941693909304601f8101849004840282018401909252818152938201939291830182828015611f2e5780601f10611f0357610100808354040283529160200191611f2e565b820191906000526020600020905b815481529060010190602001808311611f1157829003601f168201915b5050505050815260200160068201805480602002602001604051908101604052809291908181526020018280548015611f9057602002820191906000526020600020905b81546001600160a01b03168152600190910190602001808311611f72575b5050509183525050600782015460208083019190915260088301805460408051601f6002600019610100600187161502019094169390930492830185900485028101850182528281529401939283018282801561202e5780601f106120035761010080835404028352916020019161202e565b820191906000526020600020905b81548152906001019060200180831161201157829003601f168201915b505050918352505060098201805460408051602060026001851615610100026000190190941693909304601f81018490048402820184019092528181529382019392918301828280156120c25780601f10612097576101008083540402835291602001916120c2565b820191906000526020600020905b8154815290600101906020018083116120a557829003601f168201915b5050509183525050600a820154602080830191909152600b8301805460408051601f600260001961010060018716150201909416939093049283018590048502810185018252828152940193928301828280156121605780601f1061213557610100808354040283529160200191612160565b820191906000526020600020905b81548152906001019060200180831161214357829003601f168201915b5050505050815250509050600281610100015110156121b05760405162461bcd60e51b815260040180806020018281038252602b815260200180615c9e602b913960400191505060405180910390fd5b805160209091015190945060ff1692505050915091565b6060600060606000336121d8615adf565b6001600160a01b0382166000908152600360209081526040918290208251815460026001821615610100026000190190911604601f810184900490930281016101c09081019094526101a081018381529093919284928491908401828280156122825780601f1061225757610100808354040283529160200191612282565b820191906000526020600020905b81548152906001019060200180831161226557829003601f168201915b505050918352505060018281015460ff8116602080850191909152610100918290046001600160a01b031660408086019190915260028087015460608701526003870180548351968116159095026000190190941604601f8101839004830285018301909152808452608090940193908301828280156123435780601f1061231857610100808354040283529160200191612343565b820191906000526020600020905b81548152906001019060200180831161232657829003601f168201915b505050918352505060048201805460408051602060026001851615610100026000190190941693909304601f81018490048402820184019092528181529382019392918301828280156123d75780601f106123ac576101008083540402835291602001916123d7565b820191906000526020600020905b8154815290600101906020018083116123ba57829003601f168201915b505050918352505060058201805460408051602060026001851615610100026000190190941693909304601f810184900484028201840190925281815293820193929183018282801561246b5780601f106124405761010080835404028352916020019161246b565b820191906000526020600020905b81548152906001019060200180831161244e57829003601f168201915b50505050508152602001600682018054806020026020016040519081016040528092919081815260200182805480156124cd57602002820191906000526020600020905b81546001600160a01b031681526001909101906020018083116124af575b5050509183525050600782015460208083019190915260088301805460408051601f6002600019610100600187161502019094169390930492830185900485028101850182528281529401939283018282801561256b5780601f106125405761010080835404028352916020019161256b565b820191906000526020600020905b81548152906001019060200180831161254e57829003601f168201915b505050918352505060098201805460408051602060026001851615610100026000190190941693909304601f81018490048402820184019092528181529382019392918301828280156125ff5780601f106125d4576101008083540402835291602001916125ff565b820191906000526020600020905b8154815290600101906020018083116125e257829003601f168201915b5050509183525050600a820154602080830191909152600b8301805460408051601f6002600019610100600187161502019094169390930492830185900485028101850182528281529401939283018282801561269d5780601f106126725761010080835404028352916020019161269d565b820191906000526020600020905b81548152906001019060200180831161268057829003601f168201915b505050505081525050905060006001600160a01b031681604001516001600160a01b0316116126cb57600080fd5b6126d3615adf565b336000908152600360209081526040918290208251815460026001821615610100026000190190911604601f810184900490930281016101c09081019094526101a081018381529093919284928491908401828280156127745780601f1061274957610100808354040283529160200191612774565b820191906000526020600020905b81548152906001019060200180831161275757829003601f168201915b505050918352505060018281015460ff8116602080850191909152610100918290046001600160a01b031660408086019190915260028087015460608701526003870180548351968116159095026000190190941604601f8101839004830285018301909152808452608090940193908301828280156128355780601f1061280a57610100808354040283529160200191612835565b820191906000526020600020905b81548152906001019060200180831161281857829003601f168201915b505050918352505060048201805460408051602060026001851615610100026000190190941693909304601f81018490048402820184019092528181529382019392918301828280156128c95780601f1061289e576101008083540402835291602001916128c9565b820191906000526020600020905b8154815290600101906020018083116128ac57829003601f168201915b505050918352505060058201805460408051602060026001851615610100026000190190941693909304601f810184900484028201840190925281815293820193929183018282801561295d5780601f106129325761010080835404028352916020019161295d565b820191906000526020600020905b81548152906001019060200180831161294057829003601f168201915b50505050508152602001600682018054806020026020016040519081016040528092919081815260200182805480156129bf57602002820191906000526020600020905b81546001600160a01b031681526001909101906020018083116129a1575b5050509183525050600782015460208083019190915260088301805460408051601f60026000196101006001871615020190941693909304928301859004850281018501825282815294019392830182828015612a5d5780601f10612a3257610100808354040283529160200191612a5d565b820191906000526020600020905b815481529060010190602001808311612a4057829003601f168201915b505050918352505060098201805460408051602060026001851615610100026000190190941693909304601f8101849004840282018401909252818152938201939291830182828015612af15780601f10612ac657610100808354040283529160200191612af1565b820191906000526020600020905b815481529060010190602001808311612ad457829003601f168201915b5050509183525050600a820154602080830191909152600b8301805460408051601f60026000196101006001871615020190941693909304928301859004850281018501825282815294019392830182828015612b8f5780601f10612b6457610100808354040283529160200191612b8f565b820191906000526020600020905b815481529060010190602001808311612b7257829003601f168201915b5050509190925250508151602083015160e084015161010090940151919b909a50929850965090945050505050565b612bc6615adf565b336000908152600360209081526040918290208251815460026001821615610100026000190190911604601f810184900490930281016101c09081019094526101a08101838152909391928492849190840182828015612c675780601f10612c3c57610100808354040283529160200191612c67565b820191906000526020600020905b815481529060010190602001808311612c4a57829003601f168201915b505050918352505060018281015460ff8116602080850191909152610100918290046001600160a01b031660408086019190915260028087015460608701526003870180548351968116159095026000190190941604601f810183900483028501830190915280845260809094019390830182828015612d285780601f10612cfd57610100808354040283529160200191612d28565b820191906000526020600020905b815481529060010190602001808311612d0b57829003601f168201915b505050918352505060048201805460408051602060026001851615610100026000190190941693909304601f8101849004840282018401909252818152938201939291830182828015612dbc5780601f10612d9157610100808354040283529160200191612dbc565b820191906000526020600020905b815481529060010190602001808311612d9f57829003601f168201915b505050918352505060058201805460408051602060026001851615610100026000190190941693909304601f8101849004840282018401909252818152938201939291830182828015612e505780601f10612e2557610100808354040283529160200191612e50565b820191906000526020600020905b815481529060010190602001808311612e3357829003601f168201915b5050505050815260200160068201805480602002602001604051908101604052809291908181526020018280548015612eb257602002820191906000526020600020905b81546001600160a01b03168152600190910190602001808311612e94575b5050509183525050600782015460208083019190915260088301805460408051601f60026000196101006001871615020190941693909304928301859004850281018501825282815294019392830182828015612f505780601f10612f2557610100808354040283529160200191612f50565b820191906000526020600020905b815481529060010190602001808311612f3357829003601f168201915b505050918352505060098201805460408051602060026001851615610100026000190190941693909304601f8101849004840282018401909252818152938201939291830182828015612fe45780601f10612fb957610100808354040283529160200191612fe4565b820191906000526020600020905b815481529060010190602001808311612fc757829003601f168201915b5050509183525050600a820154602080830191909152600b8301805460408051601f600260001961010060018716150201909416939093049283018590048502810185018252828152940193928301828280156130825780601f1061305757610100808354040283529160200191613082565b820191906000526020600020905b81548152906001019060200180831161306557829003601f168201915b50505091909252505060405189519293507fc5d2460186f7233c927e7db2dcc703c0e500b653ca82273b7bfad8045d85a470928a92506020918201918291908401908083835b602083106130e75780518252601f1990920191602091820191016130c8565b6001836020036101000a03801982511681845116808217855250505050505090500191505060405160208183030381529060405280519060200120141561312d57600080fd5b60008660ff16118015613143575060648660ff16105b61314c57600080fd5b60408101516001600160a01b03161561316457600080fd5b604051806101a001604052808881526020018760ff168152602001336001600160a01b0316815260200186815260200185815260200184815260200183815260200160006040519080825280602002602001820160405280156131d1578160200160208202803883390190505b5081526000602080830182905260408051808301825283815281850152805180830182528381526060850152608084018390528051808301825283815260a0909401939093523382526003815291902082518051919261323692849290910190615b7d565b5060208281015160018301805460408601516001600160a01b031661010002610100600160a81b031960ff90941660ff19909216919091179290921691909117905560608301516002830155608083015180516132999260038501920190615b7d565b5060a082015180516132b5916004840191602090910190615b7d565b5060c082015180516132d1916005840191602090910190615b7d565b5060e082015180516132ed916006840191602090910190615bfb565b5061010082015160078201556101208201518051613315916008840191602090910190615b7d565b506101408201518051613332916009840191602090910190615b7d565b50610160820151600a820155610180820151805161335a91600b840191602090910190615b7d565b50505050505050505050565b61336e615b53565b336000908152600160208181526040928390208351815460029481161561010002600019011693909304601f81018390049092028301608090810190945260608301828152929390928492909184919084018282801561340f5780601f106133e45761010080835404028352916020019161340f565b820191906000526020600020905b8154815290600101906020018083116133f257829003601f168201915b505050918352505060018201546001600160a01b0316602080830191909152600283018054604080518285028101850182528281529401939283018282801561348157602002820191906000526020600020905b81546001600160a01b03168152600190910190602001808311613463575b50505091909252505060405184519293507fc5d2460186f7233c927e7db2dcc703c0e500b653ca82273b7bfad8045d85a470928592506020918201918291908401908083835b602083106134e65780518252601f1990920191602091820191016134c7565b6001836020036101000a03801982511681845116808217855250505050505090500191505060405160208183030381529060405280519060200120141561352c57600080fd5b60208101516001600160a01b03161561354457600080fd5b604080516060810182528381523360208083018290528351600080825281830186528486019190915291825260018152929020815180519293919261358c9284920190615b7d565b506020828101516001830180546001600160a01b0319166001600160a01b03909216919091179055604083015180516135cb9260028501920190615bfb565b5050505050565b6000826135dd615adf565b6001600160a01b0382166000908152600360209081526040918290208251815460026001821615610100026000190190911604601f810184900490930281016101c09081019094526101a081018381529093919284928491908401828280156136875780601f1061365c57610100808354040283529160200191613687565b820191906000526020600020905b81548152906001019060200180831161366a57829003601f168201915b505050918352505060018281015460ff8116602080850191909152610100918290046001600160a01b031660408086019190915260028087015460608701526003870180548351968116159095026000190190941604601f8101839004830285018301909152808452608090940193908301828280156137485780601f1061371d57610100808354040283529160200191613748565b820191906000526020600020905b81548152906001019060200180831161372b57829003601f168201915b505050918352505060048201805460408051602060026001851615610100026000190190941693909304601f81018490048402820184019092528181529382019392918301828280156137dc5780601f106137b1576101008083540402835291602001916137dc565b820191906000526020600020905b8154815290600101906020018083116137bf57829003601f168201915b505050918352505060058201805460408051602060026001851615610100026000190190941693909304601f81018490048402820184019092528181529382019392918301828280156138705780601f1061384557610100808354040283529160200191613870565b820191906000526020600020905b81548152906001019060200180831161385357829003601f168201915b50505050508152602001600682018054806020026020016040519081016040528092919081815260200182805480156138d257602002820191906000526020600020905b81546001600160a01b031681526001909101906020018083116138b4575b5050509183525050600782015460208083019190915260088301805460408051601f600260001961010060018716150201909416939093049283018590048502810185018252828152940193928301828280156139705780601f1061394557610100808354040283529160200191613970565b820191906000526020600020905b81548152906001019060200180831161395357829003601f168201915b505050918352505060098201805460408051602060026001851615610100026000190190941693909304601f8101849004840282018401909252818152938201939291830182828015613a045780601f106139d957610100808354040283529160200191613a04565b820191906000526020600020905b8154815290600101906020018083116139e757829003601f168201915b5050509183525050600a820154602080830191909152600b8301805460408051601f60026000196101006001871615020190941693909304928301859004850281018501825282815294019392830182828015613aa25780601f10613a7757610100808354040283529160200191613aa2565b820191906000526020600020905b815481529060010190602001808311613a8557829003601f168201915b505050505081525050905060006001600160a01b031681604001516001600160a01b031611613ad057600080fd5b33613ad9615b53565b6001600160a01b0382166000908152600160208181526040928390208351815460029481161561010002600019011693909304601f810183900490920283016080908101909452606083018281529293909284929091849190840182828015613b835780601f10613b5857610100808354040283529160200191613b83565b820191906000526020600020905b815481529060010190602001808311613b6657829003601f168201915b505050918352505060018201546001600160a01b03166020808301919091526002830180546040805182850281018501825282815294019392830182828015613bf557602002820191906000526020600020905b81546001600160a01b03168152600190910190602001808311613bd7575b505050505081525050905060006001600160a01b031681602001516001600160a01b031611613c2357600080fd5b613c2b615adf565b6001600160a01b0388166000908152600360209081526040918290208251815460026001821615610100026000190190911604601f810184900490930281016101c09081019094526101a08101838152909391928492849190840182828015613cd55780601f10613caa57610100808354040283529160200191613cd5565b820191906000526020600020905b815481529060010190602001808311613cb857829003601f168201915b505050918352505060018281015460ff8116602080850191909152610100918290046001600160a01b031660408086019190915260028087015460608701526003870180548351968116159095026000190190941604601f810183900483028501830190915280845260809094019390830182828015613d965780601f10613d6b57610100808354040283529160200191613d96565b820191906000526020600020905b815481529060010190602001808311613d7957829003601f168201915b505050918352505060048201805460408051602060026001851615610100026000190190941693909304601f8101849004840282018401909252818152938201939291830182828015613e2a5780601f10613dff57610100808354040283529160200191613e2a565b820191906000526020600020905b815481529060010190602001808311613e0d57829003601f168201915b505050918352505060058201805460408051602060026001851615610100026000190190941693909304601f8101849004840282018401909252818152938201939291830182828015613ebe5780601f10613e9357610100808354040283529160200191613ebe565b820191906000526020600020905b815481529060010190602001808311613ea157829003601f168201915b5050505050815260200160068201805480602002602001604051908101604052809291908181526020018280548015613f2057602002820191906000526020600020905b81546001600160a01b03168152600190910190602001808311613f02575b5050509183525050600782015460208083019190915260088301805460408051601f60026000196101006001871615020190941693909304928301859004850281018501825282815294019392830182828015613fbe5780601f10613f9357610100808354040283529160200191613fbe565b820191906000526020600020905b815481529060010190602001808311613fa157829003601f168201915b505050918352505060098201805460408051602060026001851615610100026000190190941693909304601f81018490048402820184019092528181529382019392918301828280156140525780601f1061402757610100808354040283529160200191614052565b820191906000526020600020905b81548152906001019060200180831161403557829003601f168201915b5050509183525050600a820154602080830191909152600b8301805460408051601f600260001961010060018716150201909416939093049283018590048502810185018252828152940193928301828280156140f05780601f106140c5576101008083540402835291602001916140f0565b820191906000526020600020905b8154815290600101906020018083116140d357829003601f168201915b505050919092525050506001600160a01b038916600090815260046020908152604080832033845290915290205490915061412a57600080fd5b61018081018790526101600180516001019081905294505050505092915050565b600083614156615adf565b6001600160a01b0382166000908152600360209081526040918290208251815460026001821615610100026000190190911604601f810184900490930281016101c09081019094526101a081018381529093919284928491908401828280156142005780601f106141d557610100808354040283529160200191614200565b820191906000526020600020905b8154815290600101906020018083116141e357829003601f168201915b505050918352505060018281015460ff8116602080850191909152610100918290046001600160a01b031660408086019190915260028087015460608701526003870180548351968116159095026000190190941604601f8101839004830285018301909152808452608090940193908301828280156142c15780601f10614296576101008083540402835291602001916142c1565b820191906000526020600020905b8154815290600101906020018083116142a457829003601f168201915b505050918352505060048201805460408051602060026001851615610100026000190190941693909304601f81018490048402820184019092528181529382019392918301828280156143555780601f1061432a57610100808354040283529160200191614355565b820191906000526020600020905b81548152906001019060200180831161433857829003601f168201915b505050918352505060058201805460408051602060026001851615610100026000190190941693909304601f81018490048402820184019092528181529382019392918301828280156143e95780601f106143be576101008083540402835291602001916143e9565b820191906000526020600020905b8154815290600101906020018083116143cc57829003601f168201915b505050505081526020016006820180548060200260200160405190810160405280929190818152602001828054801561444b57602002820191906000526020600020905b81546001600160a01b0316815260019091019060200180831161442d575b5050509183525050600782015460208083019190915260088301805460408051601f600260001961010060018716150201909416939093049283018590048502810185018252828152940193928301828280156144e95780601f106144be576101008083540402835291602001916144e9565b820191906000526020600020905b8154815290600101906020018083116144cc57829003601f168201915b505050918352505060098201805460408051602060026001851615610100026000190190941693909304601f810184900484028201840190925281815293820193929183018282801561457d5780601f106145525761010080835404028352916020019161457d565b820191906000526020600020905b81548152906001019060200180831161456057829003601f168201915b5050509183525050600a820154602080830191909152600b8301805460408051601f6002600019610100600187161502019094169390930492830185900485028101850182528281529401939283018282801561461b5780601f106145f05761010080835404028352916020019161461b565b820191906000526020600020905b8154815290600101906020018083116145fe57829003601f168201915b505050505081525050905060006001600160a01b031681604001516001600160a01b03161161464957600080fd5b33614652615b53565b6001600160a01b0382166000908152600160208181526040928390208351815460029481161561010002600019011693909304601f8101839004909202830160809081019094526060830182815292939092849290918491908401828280156146fc5780601f106146d1576101008083540402835291602001916146fc565b820191906000526020600020905b8154815290600101906020018083116146df57829003601f168201915b505050918352505060018201546001600160a01b0316602080830191909152600283018054604080518285028101850182528281529401939283018282801561476e57602002820191906000526020600020905b81546001600160a01b03168152600190910190602001808311614750575b505050505081525050905060006001600160a01b031681602001516001600160a01b03161161479c57600080fd5b6147a4615adf565b6001600160a01b0389166000908152600360209081526040918290208251815460026001821615610100026000190190911604601f810184900490930281016101c09081019094526101a0810183815290939192849284919084018282801561484e5780601f106148235761010080835404028352916020019161484e565b820191906000526020600020905b81548152906001019060200180831161483157829003601f168201915b505050918352505060018281015460ff8116602080850191909152610100918290046001600160a01b031660408086019190915260028087015460608701526003870180548351968116159095026000190190941604601f81018390048302850183019091528084526080909401939083018282801561490f5780601f106148e45761010080835404028352916020019161490f565b820191906000526020600020905b8154815290600101906020018083116148f257829003601f168201915b505050918352505060048201805460408051602060026001851615610100026000190190941693909304601f81018490048402820184019092528181529382019392918301828280156149a35780601f10614978576101008083540402835291602001916149a3565b820191906000526020600020905b81548152906001019060200180831161498657829003601f168201915b505050918352505060058201805460408051602060026001851615610100026000190190941693909304601f8101849004840282018401909252818152938201939291830182828015614a375780601f10614a0c57610100808354040283529160200191614a37565b820191906000526020600020905b815481529060010190602001808311614a1a57829003601f168201915b5050505050815260200160068201805480602002602001604051908101604052809291908181526020018280548015614a9957602002820191906000526020600020905b81546001600160a01b03168152600190910190602001808311614a7b575b5050509183525050600782015460208083019190915260088301805460408051601f60026000196101006001871615020190941693909304928301859004850281018501825282815294019392830182828015614b375780601f10614b0c57610100808354040283529160200191614b37565b820191906000526020600020905b815481529060010190602001808311614b1a57829003601f168201915b505050918352505060098201805460408051602060026001851615610100026000190190941693909304601f8101849004840282018401909252818152938201939291830182828015614bcb5780601f10614ba057610100808354040283529160200191614bcb565b820191906000526020600020905b815481529060010190602001808311614bae57829003601f168201915b5050509183525050600a820154602080830191909152600b8301805460408051601f60026000196101006001871615020190941693909304928301859004850281018501825282815294019392830182828015614c695780601f10614c3e57610100808354040283529160200191614c69565b820191906000526020600020905b815481529060010190602001808311614c4c57829003601f168201915b505050919092525050506001600160a01b038a166000908152600460209081526040808320338452909152902054909150614ca357600080fd5b610120810197909752505050506101408301919091525061010001805160010190819052919050565b60608033614cd8615b53565b6001600160a01b0382166000908152600160208181526040928390208351815460029481161561010002600019011693909304601f810183900490920283016080908101909452606083018281529293909284929091849190840182828015614d825780601f10614d5757610100808354040283529160200191614d82565b820191906000526020600020905b815481529060010190602001808311614d6557829003601f168201915b505050918352505060018201546001600160a01b03166020808301919091526002830180546040805182850281018501825282815294019392830182828015614df457602002820191906000526020600020905b81546001600160a01b03168152600190910190602001808311614dd6575b505050505081525050905060006001600160a01b031681602001516001600160a01b031611614e2257600080fd5b614e2a615b53565b336000908152600160208181526040928390208351815460029481161561010002600019011693909304601f810183900490920283016080908101909452606083018281529293909284929091849190840182828015614ecb5780601f10614ea057610100808354040283529160200191614ecb565b820191906000526020600020905b815481529060010190602001808311614eae57829003601f168201915b505050918352505060018201546001600160a01b03166020808301919091526002830180546040805182850281018501825282815294019392830182828015614f3d57602002820191906000526020600020905b81546001600160a01b03168152600190910190602001808311614f1f575b5050509190925250508151604090920151919650909450505050509091565b6060600080600084614f6c615adf565b6001600160a01b0382166000908152600360209081526040918290208251815460026001821615610100026000190190911604601f810184900490930281016101c09081019094526101a081018381529093919284928491908401828280156150165780601f10614feb57610100808354040283529160200191615016565b820191906000526020600020905b815481529060010190602001808311614ff957829003601f168201915b505050918352505060018281015460ff8116602080850191909152610100918290046001600160a01b031660408086019190915260028087015460608701526003870180548351968116159095026000190190941604601f8101839004830285018301909152808452608090940193908301828280156150d75780601f106150ac576101008083540402835291602001916150d7565b820191906000526020600020905b8154815290600101906020018083116150ba57829003601f168201915b505050918352505060048201805460408051602060026001851615610100026000190190941693909304601f810184900484028201840190925281815293820193929183018282801561516b5780601f106151405761010080835404028352916020019161516b565b820191906000526020600020905b81548152906001019060200180831161514e57829003601f168201915b505050918352505060058201805460408051602060026001851615610100026000190190941693909304601f81018490048402820184019092528181529382019392918301828280156151ff5780601f106151d4576101008083540402835291602001916151ff565b820191906000526020600020905b8154815290600101906020018083116151e257829003601f168201915b505050505081526020016006820180548060200260200160405190810160405280929190818152602001828054801561526157602002820191906000526020600020905b81546001600160a01b03168152600190910190602001808311615243575b5050509183525050600782015460208083019190915260088301805460408051601f600260001961010060018716150201909416939093049283018590048502810185018252828152940193928301828280156152ff5780601f106152d4576101008083540402835291602001916152ff565b820191906000526020600020905b8154815290600101906020018083116152e257829003601f168201915b505050918352505060098201805460408051602060026001851615610100026000190190941693909304601f81018490048402820184019092528181529382019392918301828280156153935780601f1061536857610100808354040283529160200191615393565b820191906000526020600020905b81548152906001019060200180831161537657829003601f168201915b5050509183525050600a820154602080830191909152600b8301805460408051601f600260001961010060018716150201909416939093049283018590048502810185018252828152940193928301828280156154315780601f1061540657610100808354040283529160200191615431565b820191906000526020600020905b81548152906001019060200180831161541457829003601f168201915b505050505081525050905060006001600160a01b031681604001516001600160a01b03161161545f57600080fd5b33615468615b53565b6001600160a01b0382166000908152600160208181526040928390208351815460029481161561010002600019011693909304601f8101839004909202830160809081019094526060830182815292939092849290918491908401828280156155125780601f106154e757610100808354040283529160200191615512565b820191906000526020600020905b8154815290600101906020018083116154f557829003601f168201915b505050918352505060018201546001600160a01b0316602080830191909152600283018054604080518285028101850182528281529401939283018282801561558457602002820191906000526020600020905b81546001600160a01b03168152600190910190602001808311615566575b505050505081525050905060006001600160a01b031681602001516001600160a01b0316116155b257600080fd5b6155ba615adf565b6001600160a01b038a166000908152600360209081526040918290208251815460026001821615610100026000190190911604601f810184900490930281016101c09081019094526101a081018381529093919284928491908401828280156156645780601f1061563957610100808354040283529160200191615664565b820191906000526020600020905b81548152906001019060200180831161564757829003601f168201915b505050918352505060018281015460ff8116602080850191909152610100918290046001600160a01b031660408086019190915260028087015460608701526003870180548351968116159095026000190190941604601f8101839004830285018301909152808452608090940193908301828280156157255780601f106156fa57610100808354040283529160200191615725565b820191906000526020600020905b81548152906001019060200180831161570857829003601f168201915b505050918352505060048201805460408051602060026001851615610100026000190190941693909304601f81018490048402820184019092528181529382019392918301828280156157b95780601f1061578e576101008083540402835291602001916157b9565b820191906000526020600020905b81548152906001019060200180831161579c57829003601f168201915b505050918352505060058201805460408051602060026001851615610100026000190190941693909304601f810184900484028201840190925281815293820193929183018282801561584d5780601f106158225761010080835404028352916020019161584d565b820191906000526020600020905b81548152906001019060200180831161583057829003601f168201915b50505050508152602001600682018054806020026020016040519081016040528092919081815260200182805480156158af57602002820191906000526020600020905b81546001600160a01b03168152600190910190602001808311615891575b5050509183525050600782015460208083019190915260088301805460408051601f6002600019610100600187161502019094169390930492830185900485028101850182528281529401939283018282801561594d5780601f106159225761010080835404028352916020019161594d565b820191906000526020600020905b81548152906001019060200180831161593057829003601f168201915b505050918352505060098201805460408051602060026001851615610100026000190190941693909304601f81018490048402820184019092528181529382019392918301828280156159e15780601f106159b6576101008083540402835291602001916159e1565b820191906000526020600020905b8154815290600101906020018083116159c457829003601f168201915b5050509183525050600a820154602080830191909152600b8301805460408051601f60026000196101006001871615020190941693909304928301859004850281018501825282815294019392830182828015615a7f5780601f10615a5457610100808354040283529160200191615a7f565b820191906000526020600020905b815481529060010190602001808311615a6257829003601f168201915b505050919092525050506001600160a01b038b166000908152600460209081526040808320338452909152902054909150615ab957600080fd5b80516020820151610100830151604090930151919c909b50919950975095505050505050565b604051806101a0016040528060608152602001600060ff16815260200160006001600160a01b03168152602001600081526020016060815260200160608152602001606081526020016060815260200160008152602001606081526020016060815260200160008152602001606081525090565b60405180606001604052806060815260200160006001600160a01b03168152602001606081525090565b828054600181600116156101000203166002900490600052602060002090601f016020900481019282601f10615bbe57805160ff1916838001178555615beb565b82800160010185558215615beb579182015b82811115615beb578251825591602001919060010190615bd0565b50615bf7929150615c5c565b5090565b828054828255906000526020600020908101928215615c50579160200282015b82811115615c5057825182546001600160a01b0319166001600160a01b03909116178255602090920191600190910190615c1b565b50615bf7929150615c79565b615c7691905b80821115615bf75760008155600101615c62565b90565b615c7691905b80821115615bf75780546001600160a01b0319168155600101615c7f56fe50617469656e74206861736e277420612076616363696e6174696f6e207061737365706f72742079657421a265627a7a72315820b5a1289b2b8e64706bb6e5877bc658f3cf6054aa6e11a51932d7d1a6ea65467e64736f6c63430005100032",
  "source": "// SPDX-License-Identifier: MIT\r\n\r\npragma solidity >=0.4.22 <0.9.0;\r\n\r\ncontract CovidApp {\r\n  address private owner;\r\n  mapping (address => doctor) private doctors;// doctor and list of patient profile he can access\r\n  mapping (address => mapping(address => uint)) private doctorToPatient;\r\n  mapping (address => patient) private patients;\r\n  mapping (address => mapping (address => uint)) private patientToDoctor;\r\n  uint private gpos;\r\n  struct patient {\r\n      string name;\r\n      uint8 age;\r\n      address id;\r\n      uint numCin;\r\n      string gender;\r\n      string contact;\r\n      string city;\r\n      address[] doctor_list;\r\n      uint nbrDoses;\r\n      string doseType;\r\n      string doseDate;\r\n      uint nbrInfections;\r\n      string infectionDate;\r\n  }\r\n  \r\n  struct doctor {\r\n      string name;\r\n      address id;\r\n      address[] patient_list;\r\n  }\r\n  \r\n  constructor() public {\r\n    owner = msg.sender;\r\n  }\r\n  \r\n  modifier checkDoctor(address id) {\r\n    doctor memory d = doctors[id];\r\n    require(d.id > address(0x0));//check if doctor exist\r\n    _;\r\n  }\r\n  \r\n  modifier checkPatient(address id) {\r\n    patient memory p = patients[id];\r\n    require(p.id > address(0x0));//check if patient exist\r\n    _;\r\n  }\r\n  \r\n  modifier onlyOwner() {\r\n    require(msg.sender == owner);\r\n    _;\r\n  }\r\n\r\n\r\n  function signupPatient(string memory _name, uint8 _age, uint _numCin, string memory _gender, string memory _contact, string memory _city) public {\r\n     patient memory p = patients[msg.sender];\r\n     require(keccak256(abi.encodePacked(_name)) != keccak256(\"\"));\r\n     require((_age > 0) && (_age < 100));\r\n     require(!(p.id > address(0x0)));\r\n\r\n     patients[msg.sender] = patient({name:_name,age:_age,id:msg.sender,numCin:_numCin,gender:_gender,contact:_contact,city:_city,doctor_list:new address[](0),nbrDoses:0,doseType:\"\",doseDate:\"\",nbrInfections:0,infectionDate:\"\"});\r\n  }\r\n  \r\n  function signupDoctor(string memory _name) public {\r\n      doctor memory d = doctors[msg.sender];\r\n      require(keccak256(abi.encodePacked(_name)) != keccak256(\"\"));\r\n      require(!(d.id > address(0x0)));\r\n\r\n      doctors[msg.sender] = doctor({name:_name,id:msg.sender,patient_list:new address[](0)});\r\n  }\r\n  \r\n  function grantAccessToDoctor(address doctor_id) public checkPatient(msg.sender) checkDoctor(doctor_id) {\r\n      patient storage p = patients[msg.sender];\r\n      doctor storage d = doctors[doctor_id];\r\n      require(patientToDoctor[msg.sender][doctor_id] < 1);// this means doctor already been access\r\n      \r\n      uint pos = p.doctor_list.push(doctor_id);// new length of array\r\n      gpos = pos;\r\n      patientToDoctor[msg.sender][doctor_id] = pos;\r\n      d.patient_list.push(msg.sender);\r\n  }\r\n  \r\n  \r\n  function getPatientInfo() public view checkPatient(msg.sender) returns(string memory, uint8, address[] memory, uint ) {\r\n      patient memory p = patients[msg.sender];\r\n      return (p.name, p.age, p.doctor_list, p.nbrDoses);\r\n  }\r\n  \r\n  function getDoctorInfo() public view checkDoctor(msg.sender) returns(string memory, address[] memory){\r\n      doctor memory d = doctors[msg.sender];\r\n      return (d.name, d.patient_list);\r\n  }\r\n  \r\n  function checkProfile(address _user) public view onlyOwner returns(string memory, string memory){\r\n      patient memory p = patients[_user];\r\n      doctor memory d = doctors[_user];\r\n      \r\n      if(p.id > address(0x0))\r\n          return (p.name, 'patient');\r\n      else if(d.id > address(0x0))\r\n          return (d.name, 'doctor');\r\n      else\r\n          return ('', '');\r\n  }\r\n  \r\n  function getPatientInfoForDoctor(address pat) public view checkPatient(pat) checkDoctor(msg.sender) returns(string memory, uint8, uint, address){\r\n      patient memory p = patients[pat];\r\n\r\n      require(patientToDoctor[pat][msg.sender] > 0);\r\n\r\n      return (p.name, p.age, p.nbrDoses, p.id);\r\n  }\r\n  function addDose(address pat, string memory _doseType, string memory _doseDate) public view checkPatient(pat) checkDoctor(msg.sender) returns(uint) {\r\n    patient memory p = patients[pat];\r\n\r\n    require(patientToDoctor[pat][msg.sender] > 0);\r\n\r\n    p.doseType = _doseType;\r\n    p.doseDate = _doseDate;\r\n    p.nbrDoses += 1;\r\n    return(p.nbrDoses);\r\n  }\r\n  function addInfection(address pat, string memory _infectionDate) public view checkPatient(pat) checkDoctor(msg.sender) returns(uint) {\r\n    patient memory p = patients[pat];\r\n\r\n    require(patientToDoctor[pat][msg.sender] > 0);\r\n\r\n    p.infectionDate = _infectionDate;\r\n    \r\n    p.nbrInfections = p.nbrInfections + 1;\r\n    return(p.nbrInfections);\r\n  }\r\n  /*function getPatientPasseport() public view checkPatient(msg.sender) returns(string memory, uint, uint, string memory ,string memory) {\r\n    patient memory p = patients[msg.sender];\r\n    require(p.nbrDoses >= 2, \"You haven't a vaccination passeport yet!\");\r\n    return(p.name, p.numCin, p.age, p.gender, p.city);\r\n  }*/\r\n  function getPatientPasseportForAll(address pat) public view checkPatient(pat)returns(string memory, uint) {\r\n    patient memory p = patients[pat];\r\n        require(p.nbrDoses >= 2, \"Patient hasn't a vaccination passeport yet!\");\r\n\r\n    return(p.name,  p.age);\r\n  }\r\n}",
  "sourcePath": "C:\\Users\\lenovo\\OneDrive - ensi-uma.tn\\Bureau\\Blockchain app for covid19\\contracts\\CovidApp.sol",
  "compiler": {
    "name": "solc",
    "version": "0.5.16+commit.9c3226ce.Emscripten.clang"
  },
  "schemaVersion": "3.4.7",
  "updatedAt": "2022-05-25T15:20:59.849Z",
  "networkType": "ethereum",
  "devdoc": {
    "methods": {}
  },
  "userdoc": {
    "methods": {}
  }
}